{
  "contractName": "SupplyChain",
  "abi": [
    {
      "constant": true,
      "inputs": [],
      "name": "skuCount",
      "outputs": [
        {
          "name": "",
          "type": "uint256"
        }
      ],
      "payable": false,
      "stateMutability": "view",
      "type": "function"
    },
    {
      "constant": true,
      "inputs": [
        {
          "name": "",
          "type": "uint256"
        }
      ],
      "name": "items",
      "outputs": [
        {
          "name": "name",
          "type": "string"
        },
        {
          "name": "sku",
          "type": "uint256"
        },
        {
          "name": "price",
          "type": "uint256"
        },
        {
          "name": "state",
          "type": "uint8"
        },
        {
          "name": "seller",
          "type": "address"
        },
        {
          "name": "buyer",
          "type": "address"
        }
      ],
      "payable": false,
      "stateMutability": "view",
      "type": "function"
    },
    {
      "inputs": [],
      "payable": false,
      "stateMutability": "nonpayable",
      "type": "constructor"
    },
    {
      "anonymous": false,
      "inputs": [
        {
          "indexed": false,
          "name": "sku",
          "type": "uint256"
        }
      ],
      "name": "ForSale",
      "type": "event"
    },
    {
      "anonymous": false,
      "inputs": [
        {
          "indexed": false,
          "name": "sku",
          "type": "uint256"
        }
      ],
      "name": "Sold",
      "type": "event"
    },
    {
      "anonymous": false,
      "inputs": [
        {
          "indexed": false,
          "name": "sku",
          "type": "uint256"
        }
      ],
      "name": "Shipped",
      "type": "event"
    },
    {
      "anonymous": false,
      "inputs": [
        {
          "indexed": false,
          "name": "sku",
          "type": "uint256"
        }
      ],
      "name": "Received",
      "type": "event"
    },
    {
      "constant": false,
      "inputs": [
        {
          "name": "_name",
          "type": "string"
        },
        {
          "name": "_price",
          "type": "uint256"
        }
      ],
      "name": "addItem",
      "outputs": [
        {
          "name": "",
          "type": "bool"
        }
      ],
      "payable": false,
      "stateMutability": "nonpayable",
      "type": "function"
    },
    {
      "constant": false,
      "inputs": [
        {
          "name": "sku",
          "type": "uint256"
        }
      ],
      "name": "buyItem",
      "outputs": [],
      "payable": true,
      "stateMutability": "payable",
      "type": "function"
    },
    {
      "constant": false,
      "inputs": [
        {
          "name": "sku",
          "type": "uint256"
        }
      ],
      "name": "shipItem",
      "outputs": [],
      "payable": false,
      "stateMutability": "nonpayable",
      "type": "function"
    },
    {
      "constant": false,
      "inputs": [
        {
          "name": "sku",
          "type": "uint256"
        }
      ],
      "name": "receiveItem",
      "outputs": [],
      "payable": false,
      "stateMutability": "nonpayable",
      "type": "function"
    },
    {
      "constant": true,
      "inputs": [
        {
          "name": "_sku",
          "type": "uint256"
        }
      ],
      "name": "fetchItem",
      "outputs": [
        {
          "name": "name",
          "type": "string"
        },
        {
          "name": "sku",
          "type": "uint256"
        },
        {
          "name": "price",
          "type": "uint256"
        },
        {
          "name": "state",
          "type": "uint256"
        },
        {
          "name": "seller",
          "type": "address"
        },
        {
          "name": "buyer",
          "type": "address"
        }
      ],
      "payable": false,
      "stateMutability": "view",
      "type": "function"
    }
  ],
  "bytecode": "0x608060405234801561001057600080fd5b50336000806101000a81548173ffffffffffffffffffffffffffffffffffffffff021916908373ffffffffffffffffffffffffffffffffffffffff1602179055506000600181905550611411806100686000396000f300608060405260043610610083576000357c0100000000000000000000000000000000000000000000000000000000900463ffffffff168063227024731461008857806362d6bbdf146100b3578063a26be9991461013e578063ad4b9cfb1461016b578063bfb231d21461028c578063e7fb74c7146103bb578063f61c899a146103db575b600080fd5b34801561009457600080fd5b5061009d610408565b6040518082815260200191505060405180910390f35b3480156100bf57600080fd5b50610124600480360381019080803590602001908201803590602001908080601f01602080910402602001604051908101604052809392919081815260200183838082843782019150505050505091929192908035906020019092919050505061040e565b604051808215151515815260200191505060405180910390f35b34801561014a57600080fd5b50610169600480360381019080803590602001909291905050506105c7565b005b34801561017757600080fd5b50610196600480360381019080803590602001909291905050506108ec565b60405180806020018781526020018681526020018581526020018473ffffffffffffffffffffffffffffffffffffffff1673ffffffffffffffffffffffffffffffffffffffff1681526020018373ffffffffffffffffffffffffffffffffffffffff1673ffffffffffffffffffffffffffffffffffffffff168152602001828103825288818151815260200191508051906020019080838360005b8381101561024c578082015181840152602081019050610231565b50505050905090810190601f1680156102795780820380516001836020036101000a031916815260200191505b5097505050505050505060405180910390f35b34801561029857600080fd5b506102b760048036038101908080359060200190929190505050610a97565b60405180806020018781526020018681526020018560038111156102d757fe5b60ff1681526020018473ffffffffffffffffffffffffffffffffffffffff1673ffffffffffffffffffffffffffffffffffffffff1681526020018373ffffffffffffffffffffffffffffffffffffffff1673ffffffffffffffffffffffffffffffffffffffff168152602001828103825288818151815260200191508051906020019080838360005b8381101561037b578082015181840152602081019050610360565b50505050905090810190601f1680156103a85780820380516001836020036101000a031916815260200191505b5097505050505050505060405180910390f35b6103d960048036038101908080359060200190929190505050610bb8565b005b3480156103e757600080fd5b506104066004803603810190808035906020019092919050505061101c565b005b60015481565b60007fa96ae0fc3224ebd79eebfe54bd130cc9cb94416cddd1f2386115e00b725324686001546040518082815260200191505060405180910390a160c06040519081016040528084815260200160015481526020018381526020016000600381111561047657fe5b81526020013373ffffffffffffffffffffffffffffffffffffffff168152602001600073ffffffffffffffffffffffffffffffffffffffff1681525060026000600154815260200190815260200160002060008201518160000190805190602001906104e3929190611340565b50602082015181600101556040820151816002015560608201518160030160006101000a81548160ff0219169083600381111561051c57fe5b021790555060808201518160030160016101000a81548173ffffffffffffffffffffffffffffffffffffffff021916908373ffffffffffffffffffffffffffffffffffffffff16021790555060a08201518160040160006101000a81548173ffffffffffffffffffffffffffffffffffffffff021916908373ffffffffffffffffffffffffffffffffffffffff16021790555090505060018054016001819055506001905092915050565b6002600082815260200190815260200160002060c06040519081016040529081600082018054600181600116156101000203166002900480601f01602080910402602001604051908101604052809291908181526020018280546001816001161561010002031660029004801561067f5780601f106106545761010080835404028352916020019161067f565b820191906000526020600020905b81548152906001019060200180831161066257829003601f168201915b5050505050815260200160018201548152602001600282015481526020016003820160009054906101000a900460ff1660038111156106ba57fe5b60038111156106c557fe5b81526020016003820160019054906101000a900473ffffffffffffffffffffffffffffffffffffffff1673ffffffffffffffffffffffffffffffffffffffff1673ffffffffffffffffffffffffffffffffffffffff1681526020016004820160009054906101000a900473ffffffffffffffffffffffffffffffffffffffff1673ffffffffffffffffffffffffffffffffffffffff1673ffffffffffffffffffffffffffffffffffffffff16815250506002600381111561078257fe5b8160600151600381111561079257fe5b141515610807576040517f08c379a00000000000000000000000000000000000000000000000000000000081526004018080602001828103825260108152602001807f4974656d206e6f7420736869707065640000000000000000000000000000000081525060200191505060405180910390fd5b6002600083815260200190815260200160002060040160009054906101000a900473ffffffffffffffffffffffffffffffffffffffff168073ffffffffffffffffffffffffffffffffffffffff163373ffffffffffffffffffffffffffffffffffffffff1614151561087857600080fd5b60036002600085815260200190815260200160002060030160006101000a81548160ff021916908360038111156108ab57fe5b02179055507fa8142743f8f70a4c26f3691cf4ed59718381fb2f18070ec52be1f1022d855557836040518082815260200191505060405180910390a1505050565b60606000806000806000600260008881526020019081526020016000206000018054600181600116156101000203166002900480601f0160208091040260200160405190810160405280929190818152602001828054600181600116156101000203166002900480156109a05780601f10610975576101008083540402835291602001916109a0565b820191906000526020600020905b81548152906001019060200180831161098357829003601f168201915b5050505050955060026000888152602001908152602001600020600101549450600260008881526020019081526020016000206002015493506002600088815260200190815260200160002060030160009054906101000a900460ff166003811115610a0857fe5b92506002600088815260200190815260200160002060030160019054906101000a900473ffffffffffffffffffffffffffffffffffffffff1691506002600088815260200190815260200160002060040160009054906101000a900473ffffffffffffffffffffffffffffffffffffffff16905085858585858595509550955095509550955091939550919395565b6002602052806000526040600020600091509050806000018054600181600116156101000203166002900480601f016020809104026020016040519081016040528092919081815260200182805460018160011615610100020316600290048015610b435780601f10610b1857610100808354040283529160200191610b43565b820191906000526020600020905b815481529060010190602001808311610b2657829003601f168201915b5050505050908060010154908060020154908060030160009054906101000a900460ff16908060030160019054906101000a900473ffffffffffffffffffffffffffffffffffffffff16908060040160009054906101000a900473ffffffffffffffffffffffffffffffffffffffff16905086565b6002600082815260200190815260200160002060c06040519081016040529081600082018054600181600116156101000203166002900480601f016020809104026020016040519081016040528092919081815260200182805460018160011615610100020316600290048015610c705780601f10610c4557610100808354040283529160200191610c70565b820191906000526020600020905b815481529060010190602001808311610c5357829003601f168201915b5050505050815260200160018201548152602001600282015481526020016003820160009054906101000a900460ff166003811115610cab57fe5b6003811115610cb657fe5b81526020016003820160019054906101000a900473ffffffffffffffffffffffffffffffffffffffff1673ffffffffffffffffffffffffffffffffffffffff1673ffffffffffffffffffffffffffffffffffffffff1681526020016004820160009054906101000a900473ffffffffffffffffffffffffffffffffffffffff1673ffffffffffffffffffffffffffffffffffffffff1673ffffffffffffffffffffffffffffffffffffffff168152505060006003811115610d7357fe5b81606001516003811115610d8357fe5b141515610df8576040517f08c379a00000000000000000000000000000000000000000000000000000000081526004018080602001828103825260118152602001807f4974656d206e6f7420666f722073616c6500000000000000000000000000000081525060200191505060405180910390fd5b6002600083815260200190815260200160002060020154803410151515610e1e57600080fd5b826000806002600087815260200190815260200160002060030160019054906101000a900473ffffffffffffffffffffffffffffffffffffffff1673ffffffffffffffffffffffffffffffffffffffff166108fc60026000898152602001908152602001600020600201549081150290604051600060405180830381858888f19350505050158015610eb4573d6000803e3d6000fd5b50336002600088815260200190815260200160002060040160006101000a81548173ffffffffffffffffffffffffffffffffffffffff021916908373ffffffffffffffffffffffffffffffffffffffff16021790555060016002600088815260200190815260200160002060030160006101000a81548160ff02191690836003811115610f3d57fe5b02179055507f92f64ca637d023f354075a4be751b169c1a8a9ccb6d33cdd0cb3520543995727866040518082815260200191505060405180910390a16002600084815260200190815260200160002060020154915081340390506002600084815260200190815260200160002060040160009054906101000a900473ffffffffffffffffffffffffffffffffffffffff1673ffffffffffffffffffffffffffffffffffffffff166108fc829081150290604051600060405180830381858888f19350505050158015611013573d6000803e3d6000fd5b50505050505050565b6002600082815260200190815260200160002060c06040519081016040529081600082018054600181600116156101000203166002900480601f0160208091040260200160405190810160405280929190818152602001828054600181600116156101000203166002900480156110d45780601f106110a9576101008083540402835291602001916110d4565b820191906000526020600020905b8154815290600101906020018083116110b757829003601f168201915b5050505050815260200160018201548152602001600282015481526020016003820160009054906101000a900460ff16600381111561110f57fe5b600381111561111a57fe5b81526020016003820160019054906101000a900473ffffffffffffffffffffffffffffffffffffffff1673ffffffffffffffffffffffffffffffffffffffff1673ffffffffffffffffffffffffffffffffffffffff1681526020016004820160009054906101000a900473ffffffffffffffffffffffffffffffffffffffff1673ffffffffffffffffffffffffffffffffffffffff1673ffffffffffffffffffffffffffffffffffffffff1681525050600160038111156111d757fe5b816060015160038111156111e757fe5b14151561125c576040517f08c379a000000000000000000000000000000000000000000000000000000000815260040180806020018281038252600d8152602001807f4974656d206e6f7420736f6c640000000000000000000000000000000000000081525060200191505060405180910390fd5b6002600083815260200190815260200160002060030160019054906101000a900473ffffffffffffffffffffffffffffffffffffffff168073ffffffffffffffffffffffffffffffffffffffff163373ffffffffffffffffffffffffffffffffffffffff161415156112cd57600080fd5b600280600085815260200190815260200160002060030160006101000a81548160ff021916908360038111156112ff57fe5b02179055507ff00b9a5725b80c54016f42114f6ed7792d22eecb116011c4afac29c57bef6c95836040518082815260200191505060405180910390a1505050565b828054600181600116156101000203166002900490600052602060002090601f016020900481019282601f1061138157805160ff19168380011785556113af565b828001600101855582156113af579182015b828111156113ae578251825591602001919060010190611393565b5b5090506113bc91906113c0565b5090565b6113e291905b808211156113de5760008160009055506001016113c6565b5090565b905600a165627a7a723058204ec5bcf1c97f03a20324e1f45e121a0fe68e5965d16ce1253966b648be7f91a30029",
  "source": "pragma solidity ^0.4.23;\n\ncontract SupplyChain {\n\n  /* set owner */\n  address owner;\n\n  /* Add a variable called skuCount to track the most recent sku # */\n  uint public skuCount;\n\n  /* Add a line that creates a public mapping that maps the SKU (a number) to an Item.\n     Call this mappings items\n  */\n  mapping (uint => Item) public items;\n\n  /* Add a line that creates an enum called State. This should have 4 states\n    ForSale\n    Sold\n    Shipped\n    Received\n    (declaring them in this order is important for testing)\n  */\n  enum State { ForSale, Sold, Shipped, Received }\n\n  /* Create a struct named Item.\n    Here, add a name, sku, price, state, seller, and buyer\n    We've left you to figure out what the appropriate types are,\n    if you need help you can ask around :)\n  */\n  struct Item {\n    string name;\n    uint sku;\n    uint price;\n    State state;\n    address seller;\n    address buyer;\n  }\n\n  /* Create 4 events with the same name as each possible State (see above)\n    Each event should accept one argument, the sku*/\n  event ForSale(\n    uint sku\n  );\n\n  event Sold(\n    uint sku\n  );\n\n  event Shipped(\n    uint sku\n  );\n  \n  event Received(\n    uint sku\n  );\n\n/* Create a modifer that checks if the msg.sender is the owner of the contract */\n\n  modifier verifyCaller (address _address) { require (msg.sender == _address); _;}\n  modifier verifyOwner () { require (msg.sender == owner); _;}\n  modifier paidEnough(uint _price) { require(msg.value >= _price); _;}\n  modifier checkValue(uint _sku) {\n    //refund them after pay for item (why it is before, _ checks for logic before func)\n    _;\n    uint _price = items[_sku].price;\n    uint amountToRefund = msg.value - _price;\n    items[_sku].buyer.transfer(amountToRefund);\n  }\n\n  /* For each of the following modifiers, use what you learned about modifiers\n   to give them functionality. For example, the forSale modifier should require\n   that the item with the given sku has the state ForSale. */\n  modifier forSale (Item _item) { require (_item.state == State.ForSale, \"Item not for sale\"); _;}\n  modifier sold (Item _item) { require (_item.state == State.Sold, \"Item not sold\"); _;}\n  modifier shipped (Item _item) { require (_item.state == State.Shipped, \"Item not shipped\"); _;}\n  modifier received (Item _item) { require (_item.state == State.Received, \"Item not received\"); _;}\n\n\n  constructor() public {\n    /* Here, set the owner as the person who instantiated the contract\n       and set your skuCount to 0. */\n       owner = msg.sender;\n       skuCount = 0;\n  }\n\n  function addItem(string _name, uint _price) public returns(bool){\n    emit ForSale(skuCount);\n    items[skuCount] = Item({name: _name, sku: skuCount, price: _price, state: State.ForSale, seller: msg.sender, buyer: 0});\n    skuCount = skuCount + 1;\n    return true;\n  }\n\n  /* Add a keyword so the function can be paid. This function should transfer money\n    to the seller, set the buyer as the person who called this transaction, and set the state\n    to Sold. Be careful, this function should use 3 modifiers to check if the item is for sale,\n    if the buyer paid enough, and check the value after the function is called to make sure the buyer is\n    refunded any excess ether sent. Remember to call the event associated with this function!*/\n\n  function buyItem(uint sku)\n    public payable forSale(items[sku]) paidEnough(items[sku].price) checkValue(sku)\n  {\n    //transfer money to seller\n    items[sku].seller.transfer(items[sku].price);\n    //Set buyer as message sender\n    items[sku].buyer = msg.sender;\n    //Set state to sold\n    items[sku].state = State.Sold;\n    emit Sold(sku);\n\n  }\n\n  /* Add 2 modifiers to check if the item is sold already, and that the person calling this function\n  is the seller. Change the state of the item to shipped. Remember to call the event associated with this function!*/\n  function shipItem(uint sku)\n    public sold(items[sku]) verifyCaller(items[sku].seller)\n  {\n    //change state of item to shipped\n    items[sku].state = State.Shipped;\n    emit Shipped(sku);\n  }\n\n  /* Add 2 modifiers to check if the item is shipped already, and that the person calling this function\n  is the buyer. Change the state of the item to received. Remember to call the event associated with this function!*/\n  function receiveItem(uint sku)\n    public shipped(items[sku]) verifyCaller(items[sku].buyer)\n  {\n    //change state of item to received\n    items[sku].state = State.Received;\n    emit Received(sku);\n  }\n\n  /* We have these functions completed so we can run tests, just ignore it :) */\n  function fetchItem(uint _sku) public view returns (string name, uint sku, uint price, uint state, address seller, address buyer) {\n    name = items[_sku].name;\n    sku = items[_sku].sku;\n    price = items[_sku].price;\n    state = uint(items[_sku].state);\n    seller = items[_sku].seller;\n    buyer = items[_sku].buyer;\n    return (name, sku, price, state, seller, buyer);\n  }\n\n}\n",
  "sourcePath": "/home/bryherbz/Documents/Exercises/supply-chain-bryanherbert/contracts/SupplyChain.sol",
  "compiler": {
    "name": "solc",
    "version": "0.4.24+commit.e67f0147.Emscripten.clang"
  },
  "schemaVersion": "2.0.1",
  "updatedAt": "2018-12-04T18:55:07.202Z"
}